:100000000C94AB0B0C94D80B0C94D80B0C94D80B11
:100010000C94D80B0C94D80B0C94D80B0C94D80BD4
:100020000C94D80B0C94D80B0C94D80B0C94D80BC4
:100030000C94E3520C94D80B0C94D80B0C94D80B62
:100040000C94D80B0C94472B0C94D80B0C94D80B15
:100050000C94D80B0C94D80B0C94D80B0C94D80B94
:100060000C94D80B0C94BA520C9490520C94D80B5C
:100070000C94D80B0C94D80B0C94D80B0C94D80B74
:100080000C94D80B0C94D80B0C94D80B0C94D80B64
:100090000C94D80B0C94D80B0C94D80B0C94D80B54
:1000A0000C94D80B0C94D80B0C94D80B0C94D80B44
:1000B0000C94D80B0C94D80B0C94D80B0C94D80B34
:1000C0000C94D80B0C94D80B0C94D80B0C94D80B24
:1000D0000C94D80B0C94D80B0C94D80B0C94D80B14
:1000E0000C94D80B0C94672A0C94B3340C94CB1D4D
:1000F0000C9412290C94A21B0C94143A0C942327F0
:100100000C9476470C94811E0C94B32A0C94E62C24
:100110000C94713D0C943E290C9488470C94DD2E70
:100120000C947E1C0C9480320C941C350C94FE3F75
:100130000C944E4D0C94EE480C94803C0C94BE3BB9
:100140000C948A390C944B1F0C94C1200C942A32C5
:100150000C94E0290C940D390C94E31B0C94993DFC
:100160000C945A4C0C94B44B0C948E4D0C94B13CA2
:100170000C94D31A0C94023C0C9492260C947C3A66
:100180000C94FF1D0C945A280C94AC480C94DC3D44
:100190000C94032D0C9404490C94E0200C94B62884
:1001A0000C941B210C94901D0C9466290C943226FF
:1001B0000C943E270C944E1E0C943F250C94272F34
:1001C0000C9414280C9421490C945E410C946934CD
:1001D0000C942F4D0C94131D0C9448410C94144A0C
:1001E0000C944C2E0C949F2C0C947D2A0C94F5347A
:1001F0000C94191B0C946F4D0C94261C0C94723F9C
:100200000C941E410C94594D0C94453C0C94155083
:100210000C94AD4D0C94C41A0C94B1260C947F41EF
:100220000C9445480C94631C0C9442470C94F521A3
:100230000C94611B0C942E1D0C9463500C947C1F29
:100240000C94644D0C9425300C94162A0C94772051
:100250000C9422320C94F9480C94E7480C945C37C7
:100260000C94BA460C94164A0C94BB1C0C94D04BBC
:100270000C94992A0C94E52C0C94CE3C0C94B54724
:100280000C94EC4B0C940B2E0C94344A0C942F4E83
:100290000C94E7490C9459340C94D61C0C949D1F73
:1002A0000C9484520C9462310C94202E0C946E2782
:1002B0000C94CF1F0C946E3B0C94C4400C94BA4F1A
:1002C0000C94D73D0C9467490C945D290C949F467F
:1002D0000C94BF2E0C94D0410C940B4F0C94B14055
:1002E0000C94423D0C940D250C9492200C94D01A41
:1002F0000C94A8410C945D250C94604E0C948240A3
:100300000C94B53A0C94A02F0C9476270C94541DA1
:100310000C94113B0C94B7240C9408260C940C48B4
:100320000C9458210C9498340C943E2A0401010436
:10033000040104040404000000040401010101019B
:100340000404010104010104040404000004040481
:100350000404000000000404000000000400000089
:10036000000000000400000000000400020000047F
:100370000004000004070404000004040400000258
:10038000020004000200000204070004000404004C
:100390000004000402020404040404000004000435
:1003A0000404040404040004000203040004040020
:1003B000040004000004000400000000000000002D
:1003C000000100020102B603D31A0200000100007E
:1003D00000C41A03000001000000D01A040000014C
:1003E000000000191B05000001000000B1400600DC
:1003F000010001F315C44007000001000000824025
:100400000800010001B5035C37090000010000008D
:10041000E52C0A00020101EE150B2E0B000301036F
:10042000B203E62C0C00020102B003202E0D0002E4
:100430000002B603D73D0E00020002DA154C2E0F63
:1004400000030003B203272F1000020002B003BF15
:100450002E1100050005AB03DD2E1200020002DAAA
:1004600015423D1300010001B503993D140002003F
:1004700002B003713D1500020002DA15B13C16000E
:10048000040004A703723F1700050005A203DC3D2A
:100490001800010001B503424719000800089A033B
:1004A000B5471A0003000397030C481B0002000223
:1004B000DA15AC481C00020002B00388471D000496
:1004C0000004D21545481E00010001B50376471F00
:1004D00000020002DA15232720000900098E035AC2
:1004E000282100020002B00314282200040003DCCB
:1004F0001580322300030002DF1559342400030065
:1005000002DF1569342500040004D615762726007D
:10051000010001B5036E2727000300038B033E276C
:100520002800040003880362312900040004D61562
:100530002A322A00010001B50322322B00030003F6
:1005400085035D292C00030003820366292D000624
:1005500000067C03E0292E00020002DA157C3A2F07
:10056000000500057703113B3000040004E8151274
:10057000293100020002DA153E293200040003741A
:1005800003143A33000500056F03B53A3400010047
:1005900001B5035D253500040003C91508263600A2
:1005A0000500056A0332263700040004D6150D2520
:1005B00038000300038B033F253900030002DF15D9
:1005C0002F4D3A00030002DF1592263B000600067D
:1005D0006403B1263C00030002DF15B44B3D000369
:1005E0000002DF15D04B3E000800085C03EC4B3FD7
:1005F0000006000664035A4C400005000557031C22
:100600003541000600065103B3344200030003974E
:1006100003F5344300010001B503674944000200BB
:1006200002B003E7494500020002DA15044946001A
:10063000010001B5030B4F4700020002B0036350F5
:1006400048000400044D0321494900010001B5039D
:10065000604E4A00020002B00315504B0003000335
:100660009703BA4F4C00010001B503AD4D4D000298
:100670000002B0032F4E4E00020002DA158E4D4FDD
:1006800000010001B503811E5000020002B0034BBF
:100690001F5100020002DA156F4D5200010001B532
:1006A00003D61C5300020002B003FF1D54000200D9
:1006B00002DA15131D550004000449034E1E5600AE
:1006C000010001B5037E1C5700020002B003901D1B
:1006D0005800020002DA15BB1C5900030003C615BE
:1006E0002E1D5A00010001B503261C5B000200020A
:1006F000B003541D5C00020002DA15631C5D0005A6
:100700000005A203CB1D5E00010001B503F5215FCA
:1007100000020002B0031B216000020002DA15771C
:10072000206100030003970358216200020002DAEF
:1007300015C1206300030002DF15CF1F6400040011
:1007400004D215E0206500030003970392206600A1
:1007500003000397034841670005000544035E4119
:10076000680004000440037F416900070007390363
:10077000A8416A00020002DA15D0416B00010001B5
:10078000B5033E2A6C000700073203B32A6D00034D
:1007900000032F03672A6E000300032C037D2A6FDA
:1007A00000020002DA15992A70000001000000849E
:1007B0005271000000050000000078DA9D5A7B6F3E
:1007C000E33612FF2A3A03C55D0FC99E25DBB29DB1
:1007D00043FFC83ADEDDDC6E1EB5936E718783A0E1
:1007E00048B42D440F5794F2B822DFFDE6C1976458
:1007F0006F0B6C81AD4572382487F3F8CD30BF0F95
:10080000E2FD7E7036F89C67FBBDA807278387361C
:10081000CBD3E849D432AB4A0943DB2439F3FEF6A3
:1008200071B1F8D19BBC1BBF1B7A0F59D936592E19
:10083000B1F7FADE7BAF9A3F7AC1BB207C170CFD83
:1008400070E807136095544511972930F97D10A77A
:10085000D20F826114374D9CECA2A6CEB65B5147F5
:100860007119E7D5D6ABB2F4A71F12AFDB1B71EF3E
:10087000E06C363BA1F923BF18BE7C178779001CBA
:10088000F2BC4AE24660A7F492AA2D1BE60E434C46
:100890009D95DFC57CE4A3D49A06C415C5C9A3A65B
:1008A000B62B8C4387204D35C1BE92F493953FFD06
:1008B000D07AFB36CFA376CF136676C26FADA85F32
:1008C0000D4F38C22352D742365193258F925B4D3C
:1008D0001D97B2C89A48AFEA6525DCA15A7F0A770E
:1008E000918BB88EE4AE6DD2EAB91C9C05783DE5DB
:1008F00026DB46EA66F412729FA9937969DCC4513B
:100900002DE2F435E24D82B0E69D797423476626E8
:10091000BBB82C458E9F655B44AA29BFC1743E724B
:1009200098BEE4A3F1E490E5E02C7496D6F7654414
:10093000A9388D2CA787220345D4040FAD8CBA9F0C
:1009400051F3BA17C4783AB19358E876163623E7CC
:1009500026ED1EA853D4DD1D746E71121AE234DB2D
:10096000664D9C4755DBF4263CC5792B482E621317
:10097000B77913998E227E89D2B68E1BB0433A9CEA
:100980003F35FC04585553ED3BBC92CEE2815D7C73
:10099000978EC7D39911452D95E03DA13FD2B1F96E
:1009A0009A98AFD07C4DCD97C8E357A37670255663
:1009B0008B762F53DF68C236065372742085736BB3
:1009C0001E32C91FAD3A59D16741E2E9AB1E5BBE89
:1009D000595204C3F978A6590399F50BBE21CBD31C
:1009E000C40FFDE018D5E968D8278B9EB36607EAE7
:1009F000D33C1C4EF0B09B3748939D353219A4CFA1
:100A00007FAE511E10C2E9B3BDA362F640C5BE9DC4
:100A10000793E1B19D4E6786AA14D53E7B11794FAD
:100A20005BC87864F63FE0BA6BC11137116A89E39D
:100A300007A4802E10BEBDA3C9D830DD3F174734B0
:100A4000307905DF607928FDDBB57D8D849E0395C7
:100A50001CDBFB93958C3659EE9804524B9120B1D8
:100A6000646106560C60D9FD7DA0F76CB22711EDCC
:100A7000B2ED8E3DEBDCA507B3DFE6E288B731636C
:100A800056E0A7C1B433553BBE63B3D55054C8ED4F
:100A90004F3FFC1DA2D568DC998BCA820A9C48A3F3
:100AA000A0237B53B299CEADF74CE4113DF7242837
:100AB00087FE7C2D93A86B475E52A451DFB426CEEF
:100AC000D11B81B1D96C1D9A4A3FBD34ABF527FBD0
:100AD0007B22B6546D2E85C334B0EEB1D989BAA845
:100AE000C089ED8F8AD41DB6520DAD53698AA48D8D
:100AF0006BA34BF54B74E001BDC674A2A636592119
:100B0000F868D6A48EC759AB4AD6881DE7D7D42833
:100B1000447B1760DEA97868C1682A803273DD8261
:100B2000A5B764307CA9BE21C3E0E355752A6A5C91
:100B30000C0272CDEE35D004CF75D688030AB40C02
:100B40002684FD8B42D45B5126AF11FA61D8047420
:100B5000B14F8E7655210EE2B58C8BBD6B65AA6DBB
:100B6000A275379EC3D66D1CE0E3463D0C0287900C
:100B700015FBA860621727B4007B8A1B61041480F0
:100B80003A6F329030F88D8865E82575C21EFC6496
:100B9000B0059741FB849B512DA2017FC4CD768F78
:100BA0005707C67E3250A104CCBA4C23505B1329A0
:100BB000F19BE51CFA3D32BC02CF41148A0CAE8396
:100BC00062C6F72142D80B7A4E7477E07D5D670AE2
:100BD0004D72852001FCC5CB1392D57FECDB59F219
:100BE000D99D08C66A0C348D1D5576CCA7C32A54EE
:100BF0001B20DCB5B1C649AA8327F450CBA25C28E0
:100C00003F09A7CD525136D906B0DC66033B20C35D
:100C100037C00276A663D3F7C8E37404CAAB630691
:100C200089DDDCFEC41D69F7A9D50C06A0BBD6B9C9
:100C30009509E831AB500F1576F413E43FEDD191EF
:100C4000CAB5D641CE4297A003137BACE6FE016540
:100C50009FD97C68493AF0B0C72A9CF5E8FA8C42E3
:100C6000BBED3E82FC4E4B7D786D04B87C32C87D76
:100C70004578DB2BACF5AA98695BA02E5B60B613B8
:100C8000C9A3032BF1F6785F5DD4DA3BDF74DC2572
:100C9000EB1F6F6A6EAF074ECDE1F61538E7FED158
:100CA0009CA033D10C3A70AE7FF9A30ED5C1D59B71
:100CB000C3F4B15B9FCFB04F7870A0B9A6E8E1BB99
:100CC000BE0E997D77315A5F7E7E97EC6039B3A175
:100CD0001E48EBF399F6E80E1819ED3F802DDFC89A
:100CE000E0D0C30248C9368D822F469599754F00D2
:100CF0007064A30BC722F937567134B3A398DC0094
:100D00000401312275F43264B9B6E2580263D6A800
:100D10005CB8E99B293DB469C88D31805B1C6B626E
:100D2000842B9E05E0A2E660AB3DE48EBC2FFC6602
:100D300010CE40BF08E8222A08D53731E030D65F10
:100D40001066C0BD228D7B885EFA051B1F1D10D169
:100D500011081E1B9E1DAC0C93429E548A17B505AC
:100D6000406426D86535C75F9F89B440FE04778309
:100D700058702B1603E15C46C69A73E9E26A9091BB
:100D8000D86CA24D1D43F0CB1A0DB5C3031E1C77C2
:100D90002299C4F6403A16651E759B8F0E3B2F6E46
:100DA0009B2AD2A4C47D72C05DEDC844546E4659DE
:100DB000FAA220DD909857D257BF81FA1DA9DF31E2
:100DC000FC22EBC3C3BB70E680318E316BFCF215A5
:100DD00013502C272BE805691BEF4E8339133A215A
:100DE000D3191E4DF46807666097821945950A0766
:100DF0006EC094A99DD2C51845262B8D2C8A4A66B3
:100E0000C71205CDAE0FDCC31173FDF6494678DF7E
:100E1000948AFC11389BCCBA54C7B1D904CFC049CD
:100E2000478400107042E6DC2DA8FDDC1210EC4473
:100E300017C0C8C4021507B5C20C5858A50C1D59D7
:100E400077F1120316B0D61ECC7121F59FC0614F09
:100E5000D475E5B68DDF29AA326B60C87A43D50117
:100E6000BE8F847C1A1CAE7C0C4F9FA241F7E8F029
:100E7000BAEBF839A2F86EC206741478B1197FE2A1
:100E80003AA89D248CC3F90712EC50E8E282EE5692
:100E9000FE82F8CD911F8985F8402C39E278C11186
:100EA000CD2C5DE3266F045D22276850DB084ABC29
:100EB000ECB35A74520EBB626FD72E11A81103CE39
:100EC00063E1C3F1BCE3379DDB61A5F8FC62115D12
:100ED0009DFF8A191BFA82F7F7EBE8F6F27A8DA1EB
:100EE000747036B87D3F3AB97D1FC03F7FE00C3645
:100EF000CF3478313CB9BDC081C5979BC5E7E8C305
:100F00006AF9333AE921FD7732B85ADC0355DC142B
:100F1000621B0793700884B75FAF78B500C1CF6AD2
:100F2000B9585EFEB28CBE5E5E5FDC7C45450FB09C
:100F300073BD5C4127EF42D4599CE35A4B586B89EF
:100F40006BC1E8E5F997E8FDF9FD05B2E1A5D677B3
:100F5000E777EB687D7FB5FE1946D64B1C09B17B60
:100F6000797BBB5C4537B777975797FF5E5E44F751
:100F7000D7D8C729821EC5DFE8FDCDDDA76879F186
:100F800011A6FA6F98E1B5907352E9C514D4192DE2
:100F900093C69F61DF7A79BDBE5945CBD50AFEBFA6
:100FA000582D28AFE874E259EE602F6F5860B6559F
:100FB0002B9C0CE90CD1939C876F9CDF00118E91C8
:100FC000789D3E854A7008AF00CEB2BCB9BFA3AAD7
:100FD000F2F5F9E233AF7B77BEBA8BB839D2CDD513
:100FE000F2FC42F5818B5EDF2F16CBF59A59EBFCB4
:100FF000C71EE732584417E777E7BC77E28E5D28D3
:101000005A585475C24A97D7BF9C7FB9BC60E6381E
:101010008117E473AF96B737AB3B434E2BB9F53925
:101020005CE8CBE53AB880EB862B80CFD1C527169C
:101030003938651CBD3D1F0ECEFE333C99FD17D4DB
:10104000E53D7ECFF87B81DF0001A871810D883BF3
:10105000D4586203503D353E6063ACE67FA486629F
:10106000F0091B13C5E05FD898AA399F691935E7C5
:101070000B3570CE5B27ACA9DDC7FE6834A2CDC7A7
:1010800072321C4F53124AD184333F2449E0671017
:101090004A1279938BC9D00F1E58075424432EE669
:1010A000DAF16A33F41075564286942A9BF4C876B6
:1010B000379CC1B0719FE754C7F77471216514B5AF
:1010C000884BAFAC1A88D4F0AFDA00E0792E18ED77
:1010D00078E452BCE75D06DFEC1AA4B78770002BFA
:1010E000314CD3735B290813D7BEB7A96A0FACF490
:1010F0009FBA9D491C4DA99FBA54D101A6FEB54186
:1011000098E8C96C0B1BF29A5DDC2075ACB6C91867
:101110008AEB258A5822297A24AEEA702F014A6286
:101120000D3B15A5A7EB6F663EE8E1829FB6BC7D3F
:101130005C8347E0A04305133D500B081DB2A1E7B7
:10114000A50F319C37F59ACAA3D087956EF2BF1CC4
:10115000693F70D154E3A7AC4CC58B97C7353A555E
:101160003842D9A9A372F5ECD3AF989D6195FD1FC4
:10117000AACADEB91DCF3F1DF3AB0F988BA72C90E9
:101180008DC72333D47DBEDB87D6A307863C70C7CB
:101190009184FDFD25A7079E4DE8F5B38EC7CE5B74
:1011A0001586F9F9CA509B44BB9F2AF31B85A6D329
:1011B0002F2FF6298BB13F83304DA55E14A95265C0
:1011C000FB800C2F222E040892AB9C7AB0A800352D
:1011D000ABBBF0B0708EE1C60E9B32BB29ACB32323
:1011E0003E18578513B3FEC81108A88FC7B68825C7
:1011F00044DD8B056E1DD48259A75F6584E882D4D7
:10120000C4C9B04B000AD8EEED99243F26698A4E36
:10121000C6E770C16793ABF805F560A605CA88F408
:101220004A4819836288320184A9D515585E65122F
:101230006D49263B91B639564C613266339E0AD9C8
:10124000A458E249E04D20EEF9F6845D5CA764EA1B
:101250008A1AABE857287ECAF03CF8AA3779F5CC51
:1012600029E235D878ECF171D0B990AB9DF406C085
:10127000EA7900DF99DC81ACDC731EC5152B1A2AD4
:1012800071A7B67B4CA1DDD8FEBEAEB620CC02B6AF
:101290001EE3D93600A26197206C816E0BAB912BB7
:1012A000A10E85A68A7E05964151C335A01D631DFA
:1012B0006D6D080EA4E33D67790E4829017E9D7788
:1012C0001246CB76A691D01FCCC067CC35F820BE95
:1012D00043DA005264455BE83E6D1C8829F4DB0666
:1012E000BDF10233F25AE481DDE7DEB572634D559C
:1012F000799B984EC727C364E9CE5529141910D29B
:10130000EB0F574DEF481E381340A2141455EE4B07
:10131000D9EED19005BB348A23F86CF1356E925D1D
:101320005A6D598A7FE1EC855EDF21EAB6E523300C
:10133000467FC80F9A4EBFB40321BEC9A38D80C398
:1013400094E0E7D182018282A7917CBFF8108B38AC
:1013500004159F566FED6EF859CA8EB2D570B5C19F
:10136000F4A27976E7D8B70D0E00559943CC788270
:101370002DC50FB90E0546A073C2425EA33D24667B
:101380005698BDE55E6F51383BFDC1818942EACF79
:1013900010527E929058144607CE2A07B9374960FA
:1013A0006CD225724D247A8A09FCF6740456E37DCA
:1013B000B375E07B950A566C7B987E41603F78D38D
:1013C000C1C80ED877E4CF2613C20FAA111280E04D
:1013D000463821E58146184EE17BF47690BB58C033
:1013E0007675737D79A790DACD2FCBD5872F04A2A0
:1013F000C1B6CEBF46ABF36BC4B24383CCD6B7CB3A
:10140000C5E587CBC551A606DC3CC8084F8DAF3774
:1014100060B5103FE2C768DBD012F8E3BF11A04B04
:10142000404F806A807F90F2F1F6CBD3684085A16F
:101430003D7840C170D9FC8947A79A40859B6E6969
:101440004AA5CAA723FB37189D29B153BAE5A28341
:101450007A60422FCF15289B729DFAE6F1D943D4CA
:10146000495F9495D1030CF6699DA21A0178C9C809
:10147000D4BC603ABD02522DF78FF6AD66A88FC876
:101480002EEF6388D7AF5E12CCD93C629D4EEDA3A0
:10149000518733E4DAE0D50FD770DFA460FA8473A4
:1014A000012DE3DE0B8CCA0F54ED942894547DFB80
:1014B00010E24C362F225C847887A4F86462A5E39E
:1014C000F561A912104673F3BCA1CEA8CB346D927E
:1014D000D07B0D55F7801D2CE6BE089ECEC8FCC003
:1014E000BFC096F3C74E314422642813D17B1FF14D
:1014F000A922E4CCE9147E6DAD4155667502CDE5B7
:101500004197E5434B1128E5A23CC0507031910E44
:101510009192CFE6630495D6B9EB078A6F0862749F
:10152000ACE47570416E65D8B9177FD4AB301D4CF3
:10153000ECDD63408942DD10723FC5908EFB925610
:1015400015655BA81FF99B3285C0568D7A25257ECF
:101550008AC25A46D8F353DD2B3D62AEF841914A18
:10156000DD73600B4D8747C01213DBEAFCB00473D8
:10157000DC0AF8AB6353A15B46B17392D854C18EB9
:1015800097A61CB730461F4E2906FFB143DBF11961
:10159000987CAABFC0039FF6347CE78FDE0D4FC353
:1015A000F9FC749B4C87D334F5E7C1E0EDFF865618
:1015B0004920F80D000028292A2B2C2D2E2F5051C0
:1015C0005253545556570404000402070400000205
:1015D00000020400000404000000040404040704E2
:1015E00007040007040404000404000404010704C1
:1015F0000004020000000000000006000202880053
:10160000100A03C6158700400A03C91586001E0D7F
:1016100006CC158500400A03E1158400150B04D2A1
:10162000158300180B04D61582000B0902DA158108
:1016300000400902DF158000400A03DC157F0040EE
:101640000903DC157E00400802DF157D0040090318
:10165000E1157C00110A04E4157B00110A04E81569
:101660007A000D0802EC1579000B0701F3157800DC
:10167000400701EE157700120A04EF1576000B07FC
:1016800001F3157500100802F4157400150903F62E
:10169000150000400802F91573000E0802FB1572D0
:1016A00000090701FD157100060600000020002357
:1016B00000260029002C002F00320000010000034A
:1016C00001060109010F470044004500800135482B
:1016D000004400450020010D88008000810080004A
:1016E0000E8A008000810020000F8C0080008100A5
:1016F00008000CB300B000B10080033EB400B0009D
:10170000B1002003239800900091008000249A00EB
:10171000900091002000259C009000910008003B63
:10172000A800A000A10080003CAA00A000A1002009
:10173000003DAC00A000A10008005B2801200121B1
:101740000180005C2A012001210120005D2C012084
:1017500001210108000011241FBECFEFD1E2DEBF3E
:10176000CDBF00E00CBF14BE0FB6F894A8958091D1
:101770006000886180936000109260000FBE12E0EC
:10178000A0E0B2E0E6E4F8EA00E00BBF02C0079098
:101790000D92A033B107D9F723E0A0E3B2E001C076
:1017A0001D92A43AB207E1F70E947D2C0C942154BB
:1017B0000C940000CF93DF93CDB7DEB7C754D109A7
:1017C0000FB6F894DEBF0FBECDBF0E946A2C6B012E
:1017D0007C0180912602882311F40C94A2150E94AA
:1017E0006A2CC61AD70AE80AF90AF89480912602E8
:1017F000882361F08FEF80932702809326027894EC
:101800000000F894809126028111F9CF78940E940B
:101810006A2C97018601060F171F281F391F24966F
:101820000CAF1DAF2EAF3FAF249781E0809326020F
:1018300080916102882309F443C0109261028FEF06
:1018400089838E010F5F1F4FF2E5EF2EF6E1FF2E29
:1018500066E777E4C8010E9478376C01892B81F133
:10186000D60156968C9182FFF3CF0E946A2CF89491
:10187000F60137892689422F4B7F468B78949F93B8
:101880008F937F936F931F923F9321701F922F939B
:1018900089811F928F93FF92EF920E94AE222DB703
:1018A0003EB7245F3F4F0FB6F8943EBF0FBE2DBF2B
:1018B00066E777E4C8010E9478376C01892B81F6CE
:1018C00080916202882361F1109262028FEF898316
:1018D0008E010F5F1F4FEBE4CE2EE6E1DE2E64E1BA
:1018E00078E2C8010E9478377C01892BC9F0D701C2
:1018F0005D969C915D975E968C919813F0CFF894CD
:10190000F701858D968D891711F40C94CE16789475
:1019100064E178E2C8010E9478377C01892B39F7AD
:1019200080914C02882329F110924C028FEF898319
:101930008E010F5F1F4F76E3E72E76E1F72E6EE301
:1019400079E2C8010E947837009799F0DC01589637
:101950002C912F3FA1F7F894FC01268521110C94BE
:101960006B1578946EE379E2C8010E94783700978E
:1019700069F780915502882309F440C010925502FE
:101980008FEF89838E010F5F1F4F6FE2E62E66E1B6
:10199000F62E65EB7AE3C8010E947837009771F163
:1019A000DC011E962C911E9723FFF3CFF894FC01C7
:1019B0002685277F268778949C01265E3F4F3F939C
:1019C0002F9350968C918695869586951F928F932E
:1019D00089811F928F93FF92EF920E94AE22EDB702
:1019E000FEB738960FB6F894FEBF0FBEEDBF65EB9D
:1019F0007AE3C8010E947837009791F680914B02F4
:101A0000882309F44BC010924B028FEF89838E011B
:101A10000F5F1F4F51E2E52E56E1F52E6FE375E2A1
:101A2000C8010E947837FC01892BC1F1848D80FFA9
:101A3000F5CFF89494812581368147815489658951
:101A40007689A789B08DD18CC28CB38C848D8E7F22
:101A5000848F7894BF92CF92DF92BF93AF937F939E
:101A60006F935F934F933F932F939F9389811F921F
:101A70008F93FF92EF920E94AE222DB73EB7205F68
:101A80003F4F0FB6F8943EBF0FBE2DBF6FE375E218
:101A9000C8010E947837FC01892B41F680915102E0
:101AA000882309F456C0109251028FEF8AABAE0121
:101AB0004E5C5F4F1A013CE0932E47E0842E65EFA9
:101AC00074E3C1010E9478375C01892B09F441C09D
:101AD000D50159968C91599780FFF1CFF894F50173
:101AE0004480558066807780818D8E7F818F789449
:101AF00058968C91813009F438C408F416C48230A9
:101B000009F462C48330D9F6CAA819821A829E01E8
:101B10002F5F3F4F42E061E0F501848995890E9483
:101B2000AD3209811A81102701271027F02FF67096
:101B3000EF2E20E030E0B301A201C5010E9467351D
:101B400065EF74E3C1010E9478375C01892B09F0CD
:101B5000BFCF809163028823F9F0109263028FEF68
:101B60008AAB8E010E5C1F4F1801B9E0BB2E0153EA
:101B7000110982EFC82EDD24DA9406C0D7011E9623
:101B80008C911E9780FD60C464E079E4C1010E94DD
:101B900078377C01892B91F780916402882341F189
:101BA000109264028FEF8DABFE01F5967F018FE2FC
:101BB000282E8E010F5F1F4F48019FEA392E20E328
:101BC000B22E38E2432E48EA742E51E3552E68EEC9
:101BD000662E06C0D6011F968C911F9780FDABC460
:101BE00061E279E4C7010E9478376C01892B91F793
:101BF00080916502882331F1109265028FEF8DABE1
:101C0000FE01F5967F01E2E23E2E8E010F5F1F4F2F
:101C10004801F2EA4F2EA0E3BA2EB4E25B2E11E3A4
:101C2000612E04EA702E06C0D6011F968C911F9774
:101C300080FDC9C46AEB7FE4C7010E9478376C015C
:101C4000892B91F7809166028823D1F01092660269
:101C50008FEF8DABFE01F5967F0162E7962E74E75C
:101C6000B72E06C0D60152968C91529780FD7EC544
:101C70006EE87DE4C7010E9478376C01892B91F7EB
:101C8000809167028823D9F0109267028FEF8DABA5
:101C90008E010B5C1F4F780130E7932E42E7B42E84
:101CA00006C0D60152968C91529780FDC5C56FE64D
:101CB0007DE4C7010E9478376C01892B91F78091F0
:101CC00045028823C9F0109245028FEF89838E0167
:101CD0000F5F1F4FCC24C394D12C06C0D701199697
:101CE0008C91199781110EC66EE47EE1C8010E94A5
:101CF00078377C01892B91F7809146028823B9F0CF
:101D0000109246028FEF8AAB8E010E5C1F4F1801B6
:101D100006C0D80151968C915197811177C66EE219
:101D20007DE1C1010E9478378C01892B91F7809168
:101D300047028823D9F0109247028FEF8AAB8E01B9
:101D40000E5C1F4F180182E1D82E0153110906C005
:101D5000D70151968C91519781115DC46BEC7DE157
:101D6000C1010E9478377C01892B91F7809148024C
:101D7000882309F487C0109248028FEF8AAB8E0146
:101D80000E5C1F4F180166246A9461EC70E2C10179
:101D90000E9478377C01892B09F474C0D7011E9604
:101DA0008C9180FFF2CF7AA8BE016F5F7F4FC70191
:101DB0000E94CA219C01F894F70196859E7F968720
:101DC0007894232B09F062C6898183FFDECFF70167
:101DD000A388B12C6501F4E1CF0ED11CCE0CDF1C21
:101DE000D7011C968D919C911D971BAA860122E01C
:101DF000AE014D5C5F4F61E00E9428304C01F7015D
:101E00008485958521E02CAB0E5F1F4F22E0AE014B
:101E10004C5C5F4F61E00E94283088299929892B0A
:101E200011F00C94DB17F701EA0DFB1D84898F3F3D
:101E300011F40C945218F6011181D60112964C91AE
:101E4000129750E060E070E0762F652F542F442702
:101E5000612B13969C91492B782BDB01CA018827B3
:101E60009927AA27B07E892B8A2B8B2B11F40C94EF
:101E7000D21760E0F701E65BFF4F808191810E94FD
:101E800024461CC680914902882309F47FC0109221
:101E900049028FEF8AAB8E010E5C1F4F1801772429
:101EA0007A949E012F5F3F4F3FAB2EABAE014A5F4E
:101EB0005F4F59AF48AFCE0109969BAF8AAF8DE116
:101EC000482E25E0622E33E0532E62E970E2C10114
:101ED0000E9478376C01892B09F458C0D6011E96F0
:101EE0008C9182FFF2CFF894F6014481558166818E
:101EF0007781F1881686118A789480859185A285EC
:101F0000B3858A019B01081B190B2A0B3B0B0CAFF5
:101F10001DAF2EAF3FAF86010E5E1F4FD601FF20D3
:101F200089F056968C91F601E80FF11D778A108E94
:101F3000118E8D5FF601868B813310F5FA94D601F0
:101F4000F110EFCF1F961C91112309F477C11130C6
:101F500009F4AFC1123009F4B0C6133009F46EC7EA
:101F6000143009F4B1C7D60156968C9190E0C19710
:101F70000CF4ABCF6AA9C60142960E947946A1CF64
:101F80006AA9C8010E947946FA94D9CFA895809190
:101F90008002882329F080E4809360001092800200
:101FA00010914103112309F46FC00091300200FD2C
:101FB00013C0153008F468C0D0908102BD2C8BEF9F
:101FC0008D0D8C3308F4E8C5EEE7BE1611F40C94C1
:101FD0006419016000933002412F50E06EE770E019
:101FE00081E892E00E94F253009739F00E7F00934F
:101FF00030028158924011E0180F01FD0CC0902F63
:1020000092609093300283EB97E09F938F930E94AE
:10201000AE220F900F90D12ECC24CA9420E00D2D2B
:1020200010E019C0822F90E04E2D50E0481B590B54
:10203000B801680F791F6F577D4F8F579D4F0E94D2
:102040000854109226022E2D8FB7F89490914103D8
:10205000F91661F08FBFF0904103EF2CED1811F7E6
:102060008FB7F89490914103F912F4CFE0924103B5
:102070008FBFF1E0CF1208C083EB97E09F938F935F
:102080000E94AE220F900F900E946A2C6B017C017F
:1020900024960CAD1DAD2EAD3FAD2497601B710B8A
:1020A000820B930B8090390290903A02A0903B02F1
:1020B000B0903C021FEF811A910AA10AB10A8092E6
:1020C000390290923A02A0923B02B0923C024090B8
:1020D0003502509036026090370270903802460EFA
:1020E000571E681E791E4092350250923602609249
:1020F0003702709238026115710521E0820791055F
:1021000008F028C59B01AC010E94EE52DC01CB0116
:1021100081509F4FAF4FBF4F892F9A2FAB2FBB27B7
:102120004091310250913202609133027091340239
:10213000840F951FA61FB71F84179507A607B7071B
:1021400018F48FEF9FEFDC018093310290933202FD
:10215000A0933302B0933402409141025091420265
:10216000609143027091440297018601041B150B94
:10217000260B370BB901A8014115544B644C744030
:1021800008F427CBBF93AF939F938F937F926F9267
:102190005F924F92BF92AF929F928F928AE896E1A0
:1021A0009F938F930E94AE222DB73EB7225F3F4F81
:1021B0000FB6F8943EBF0FBE2DBF809141029091A3
:1021C0004202A0914302B0914402C816D906EA0621
:1021D000FB0698F480913D0290913E02A0913F024F
:1021E000B09140020196A11DB11D80933D029093D4
:1021F0003E02A0933F02B0934002C0924102D092AF
:102200004202E0924302F092440210923102109294
:102210003202109233021092340210923502109260
:102220003602109237021092380210923902109240
:102230003A0210923B0210923C02CBCA82E389839D
:102240001A820E946A2C4B015C019E012F5F3F4F56
:1022500042E061E0F601848595850E94AD320E94DE
:102260006A2CDC01CB0188199909AA09BB098132C2
:102270009340A105B10508F04AC0898187FD55C486
:102280002A81E22EF12C9701220F331FE82EF12C28
:10229000C701982F8827990F7901E82AF92A950113
:1022A00084014CAD5DAD6EAD7FADC6010E947D2158
:1022B0005ACE8FE789838EEF8A830E946A2C2896F4
:1022C0006CAF7DAF8EAF9FAF28979E012F5F3F4FC2
:1022D00042E060E0D6011C968D919C911D970E9472
:1022E000AD320E946A2C4B015C01DC01CB012896C7
:1022F0000CAD1DAD2EAD3FAD2897801B910BA20BF1
:10230000B30B81329340A105B10508F491C4D60105
:1023100056968C91F601E80FF11D778A92E0908F26
:10232000118E8D5FF601868B1ECECAA819821A8285
:102330001B821C829E012F5F3F4F44E061E0F5014C
:10234000848995890E94AD3269817A818B819C81D3
:102350000E94FE52F62FF770EF2E8B019C01B30105
:10236000A201C5010E946735AACB0AA90CAF9982C8
:102370001A821B821C829E012F5F3F4F44E061E066
:10238000848995890E94AD3269817A818B819C8193
:102390000E94FE526B017C01BFE0B9831A829E014C
:1023A0002F5F3F4F42E061E0F501848995890E94EB
:1023B000AD32970186013327CCACEA80B301A2018C
:1023C000C5010E9467357BCBCAA881E089831A8248
:1023D0001B821C829E012F5F3F4F43E061E0848996
:1023E00095890E94AD3269817A818B819C810E949E
:1023F000FE52BB27A92F982F872F8C019D012227E2
:1024000033270CAF1DAF2EAF3FAF89821A829E01DA
:102410002F5F3F4F42E061E0D50154968D919C9132
:1024200055970E94AD328A81982F9C7F8CAD817028
:10243000E92EE82A0CAD1DAD2EAD3FADB301A201D2
:10244000C5010E9467353BCBAAA8F8012B2D11923C
:102450002A95E9F7C982980149E061E01C968D91BF
:102460009C911D970E94AD32D70153968C9190E0BC
:10247000FC017496EE0DFF1D3B81232F207FE1F0C0
:10248000203FD1F0D482D382D282D182F701E80FEB
:10249000F91FD48AF70183898B5F838B8F3208F011
:1024A000F5C3D7011E968C911E978E7F1E968C9336
:1024B000C7010E94C84968CB2D81422F407F09F097
:1024C000B3C35F81452F407F11F0403FD9F6488567
:1024D0004039C1F649854F77942EB0E2B41790F297
:1024E000D701A80FB91F4A8154964C938C818183E0
:1024F0008E818283852F90E03F71AC01440F551F80
:1025000042955295507F5427407F5427342B338374
:10251000880F991F880F991F80762F71822B8483D3
:10252000D70153968C9153978B5F53968C938F3230
:1025300008F4B2C3ACC3ADA851968C918033E0F0DF
:10254000F6018685882309F417C6813009F497C5FA
:10255000D6015696BC926A2DC60142960E947946D3
:10256000F60181898053818B803310F1109226020D
:1025700081E08093640234CB1AAAD6011E968C9116
:102580001E97882309F4B1C5813009F43EC6D601EF
:1025900050968C91813009F44BC680E08F73982F50
:1025A000990F890F880FD60151968C93803340F68E
:1025B000D6011F968C911F978E7F1F968C93C60114
:1025C0000E9444500DCBADA850962D913C9151974F
:1025D0002033310508F4B4C4F6018685882309F454
:1025E000E9C5813009F43CC5D6015696BC926A2DE6
:1025F000C60142960E947946F60180899189C0976A
:10260000918B808BC09708F405C31092260281E05D
:10261000809365020FCBCAA855968C91559790E090
:102620000296482F440FB42EB80EF8012D2D1192AA
:102630002A95E9F798014B2D61E01F968D919C91A9
:1026400050970E94AD32D70151961C925DEF5B0D01
:102650004CEF4B0D552309F445C5F8012FEF3FEF23
:1026600081918327982F92959F70892790E0322F30
:10267000222728273927BC01762F66277295707F7D
:1026800026273727880F991F82959295907F982744
:10269000807F982728273927415010F7452F50E091
:1026A000F801E40FF51F808190E0982F8827E2E081
:1026B000F0E0EC0FFD1FE40FF51F4081842B28177D
:1026C000390709F04DC4898182FD94C2D701539620
:1026D0008C91811192C2F701848990E00196982F24
:1026E000990F890F90E0F801E80FF91F8080912C75
:1026F000A12CB12C540199248824E3E0F0E0EC0FE4
:10270000FD1FE80FF91F2081822AE2E0F0E0EC0FC4
:10271000FD1FE80FF91F8081982AA7FE02C0BB2485
:10272000BA94B501A401F701E25BFF4F808191816A
:102730000E94E341D7015A968C91F701E80FF11DF1
:10274000838E948EA58E8B2CBB2487FCB0949B2CFF
:10275000AB2C868E8C5FF701828F803308F4FECA23
:102760006C2DC70146960E947946F8CAADA85096CE
:102770008D919C915197C09770F1B9828601085E46
:102780001F4F20E3AE014F5F5F4F61E0F60184858C
:1027900095850E9428300E94AB1A80E3D601579697
:1027A0008C93579750968D919C915197C0975196C5
:1027B0009C938E9350976A2DC60143960E9479464A
:1027C000F60180899189C09778F11092260281E004
:1027D000809366024DCAD6011C968D919C911D97DF
:1027E0009AAA8E010F5F1F4F22E0AE014E5C5F4F31
:1027F00061E00E9428300E94AB1A89818F7190E0BD
:10280000982F88272A81822BF6012685378528175D
:10281000390710F497878687D60151969C938E933B
:102820005097C0970CF0A9CFF60182898E7F828BDA
:10283000C6010E942C1F1CCAADA850968D919C9178
:102840005197C09770F1B9828601085E1F4F20E34F
:10285000AE014F5F5F4F61E0F601848595850E9470
:1028600028300E94AB1A80E3D60157968C93579775
:1028700050968D919C915197C09751969C938E93B1
:1028800050976A2DC60143960E947946F6018089C9
:102890009189C09778F11092260281E080936702B7
:1028A00006CAD6011C968D919C911D979AAA8E01FD
:1028B0000F5F1F4F22E0AE014E5C5F4F61E00E9450
:1028C00028300E94AB1A89818F7190E0982F882759
:1028D0002A81822BF601268537852817390710F4BF
:1028E00097878687D60151969C938E935097C09771
:1028F0000CF0A9CFF60182898E7F828BC6010E94DF
:102900002C1FD5C9B9801896AC9018972A2D30E0A5
:1029100052960D90BC91A02DF70194884588568859
:102920009789295E3F4F40E050E0BA016B2CF201DD
:10293000792C5A2CF89490830000000090838C919D
:102940007894440F551F661F771F8721812C912C87
:1029500054018394811103C0812C912C5401482986
:1029600059296A297B292150310920F7B62CA52C39
:10297000F894D70119962C91199719961C9278946E
:102980002A013B010A2C04C076946794579447941B
:102990000A94D2F767FE02C077247A94C60101C078
:1029A000880FAA94EAF7815090E0A0E0B0E04823B5
:1029B00059236A237B2384179507A607B70709F4D1
:1029C000D6C220E030E040E050E8D7011E962D93BB
:1029D0003D934D935C93519740E830E020E090E0C8
:1029E000D7015C968C91F701E80FF11D958F268F2A
:1029F000378F40A38C5FF701848F803308F474C94C
:102A00006B2DC70148960E9479466EC9BAA81982F3
:102A10001A821B829E012F5F3F4F43E061E01F96A9
:102A20008D919C9150970E94AD32F801118A898155
:102A3000CA80D12CE12CF12CFE2CED2CDC2CCC24EA
:102A4000E82A8B81C82AE7FE02C0FF24FA94B70166
:102A5000A601F801E55BFF4F808191810E94E3416F
:102A6000D80157968C91F801E80FF11DC08ED18ED8
:102A7000E28EF38E8C5FF801878B803308F44FC9A8
:102A80006B2DC80143960E94794649C961E0E65B17
:102A9000FF4F808191810E942446D70153968C91EB
:102AA000539790E0FC017496EE0DFF1DA80FB91F1F
:102AB00054966C926182128281E08383F70183894C
:102AC0008C5F838B803308F460C9672DC7010F9634
:102AD0000E9479465AC9318D308F7894AC01415F9C
:102AE0005F4F5F934F931F922F93FC0187891F9233
:102AF0008F9389811F928F93FF92EF920E94AE2253
:102B00002DB73EB7265F3F4F0FB6F8943EBF0FBEBE
:102B10002DBF0C949F0C28AD39AD2E173F0709F03F
:102B2000FFC19E81981709F488C2D60156968C91F0
:102B3000F601E80FF11D778A508E118E8D5FF60138
:102B4000868B11CA2496CCAEDDAEEEAEFFAE2497D6
:102B50000C94150C6115710530E18307910508F09F
:102B6000F0CA8B019C0101501F4F2F4F3F4F55273B
:102B7000432F322F212F0E94EE52DC01CB014091D6
:102B80003102509132026091330270913402840F0D
:102B9000951FA61FB71FD0CAC09082028C2D807FC0
:102BA000803109F011CA1D1508F46ECA8D2D90E010
:102BB000FC01E058FD4F20812E3709F005CAFC01C9
:102BC000E258FD4F1F01FC01E158FD4F9081D101FA
:102BD0008C91292F30E07901F82A6DEF6D0D81E895
:102BE00092E00E94802CE816F90609F470C3B090B8
:102BF0008102EAC981E0F701838B42E06C2DC701B5
:102C00000E94031FABC8F601318B208B20333105A6
:102C100008F0E2CC87858E7FD6011F968C93C60183
:102C20000E94F64F0C941A0E403F09F02BCC49CC71
:102C300080EC89831A829E012F5F3F4F42E061E062
:102C4000D6011C968D919C911D970E94AD322981D1
:102C5000EA80922F9E25892F82958F709827892F41
:102C6000869586958927982F9695892780FDD8C1C6
:102C700026FFF3C2F6018689E80FF11D778A608E80
:102C8000118E8D5FD60156968C936DC9912C6A2D4D
:102C9000C7010F960E947946BEE1B91508F04AC4F3
:102CA000F701818992890196928B818B109226027D
:102CB00081E0809363020C94C40DD6011C96ED91C3
:102CC000FC911D971481F280038140E06F2D702FDD
:102CD000812F0E943A370E946A2C4B015C01B0E1BF
:102CE0008B0E911CA11CB11C0E946A2C2B2D8616E8
:102CF0009706A806290B27FFF7CFF89441E06F2D20
:102D0000702F812F0E943A370E946A2C4B015C0180
:102D100078948AE0EEA9FFA911928A95E9F784E8F0
:102D2000898383E28A839E012F5F3F4F4AE061E0FF
:102D3000D6011C968D919C911D970E94AD32FE018B
:102D4000339685E09191892728E030E004C0880F10
:102D50002150310939F087FFFACF880F842521509F
:102D60003109C9F70AAD1BAD0E171F0759F780953A
:102D700090E02A8530E08217930709F0D6CE898546
:102D800084FF95C08B8187FD74C2D60156968C91C5
:102D9000F601E80FF11D778A94E0C1CAA488B588CE
:102DA00090888188728863888F5F858F7894A50169
:102DB00060E070E0F701EF5AFF4F808191810E943F
:102DC000E341F70180A190E0E80FF91FA1A2F7010C
:102DD000E80FF91FB2A2D70190968C9190978E5F61
:102DE00090968C939097482F50E04F5F5F4F5F967F
:102DF0002C9130E04217530714F40C946F0C970198
:102E00002F5D3F4F3F932F931F928F936F927F922F
:102E10008F929F9289811F928F93DF92CF920E940F
:102E2000AE22F70110A22DB73EB7245F3F4F0FB679
:102E3000F8943EBF0FBE2DBF0C946F0C83E88983BE
:102E40001A821B820E946A2C4B015C019E012F5F3B
:102E50003F4F43E061E0D6011C968D919C911D97F8
:102E60000E94AD320E946A2C9B01AC0128193909DD
:102E70004A095B0949015A0131E2831633E093069E
:102E8000A104B10408F043CA3A812B81532F522781
:102E9000452F42954F705427452F46954695542708
:102EA000452F4695452740FDADC021FFC4C1D60141
:102EB00056968C91F601E80FF11D778A608E118E7F
:102EC0008D5FF601868B4FC886E0EAE2F2E0DE0114
:102ED000119601900D928A95E1F70E946A2C4B01A0
:102EE0005C019E012F5F3F4F46E061E0D6011C96DA
:102EF0008D919C911D970E94AD320E946A2CAB016E
:102F0000BC01DB01CA0188199909AA09BB098132F0
:102F10009340A105B10508F0FAC9FE01339680E09F
:102F20009191892728E030E005C0880F21503109B0
:102F300009F4F1CD87FFF9CF880F07E08027F6CF9E
:102F4000D6011E969C911E97992309F4F3C09130E7
:102F500009F44AC1D60151961C921E9250975BCE3D
:102F600041E06C2DC7010E94031F0C94AE0E21FDA1
:102F70003CC0F70146855785608971894115510527
:102F80006105710509F0E2C2B301A201F701E05B3E
:102F9000FF4F808191810E94E341942D252D362D94
:102FA000472D1ECD7F70F701E65BFF4F8081918139
:102FB0000E94E34183CD62E0F701E65BFF4F808131
:102FC00091810E942446D70153968C91539790E0AB
:102FD000FC017496EE0DFF1DA80FB91F54966C925C
:102FE0006182128282E0838369CD20E030E040E09C
:102FF00050E4D7011E962D933D934D935C935197CA
:1030000040E4EBCCD60156968C91F601E80FF11D09
:10301000778A108F118E8D5FF601868B0C94B30F1B
:10302000F6018689E80FF11D778A508E118E8D5F2B
:10303000D60156968C930C94B30F8D8181FD37CFBA
:10304000EB80FC80FE24EF24FE248A019B014CAD22
:103050005DAD6EAD7FADC6010E947D210C94B30FB6
:1030600059828601095E1F4F20E3A40161E0F60149
:10307000848595850E9428300E94AB1AB5CA498282
:103080008089813009F4D2C08601095E1F4F20E398
:10309000A40161E0F601848595850E9428300E9494
:1030A000AB1A56CAD60111961C911F3F11F00C9411
:1030B0001D0F63E0F701E65BFF4F808191810E9465
:1030C0002446F701838990E0FC017496EE0DFF1D04
:1030D000D701A80FB91F54961C931183128283E065
:1030E0008383ECCC2FEF3FEFD9CA39821A82940147
:1030F00042E061E01C968D919C911D970E94AD323B
:103100008A818AAB8AA986FF0BC0D60154962D917D
:103110003C9155972F5F3F4F55963C932E93549774
:10312000F6019089913009F039CA85FF82C0F60115
:10313000118A3ECA49821A821B82940143E061E0EF
:103140001C968D919C911D970E94AD322A813B81E6
:103150002130F4E03F0708F456CDD60154968D9106
:103160009C915597019655969C938E9354975196A2
:103170003C932E93509730CAF401052D11920A9575
:10318000E9F77982D60150968C91813009F44CC0D0
:10319000940141E361E0F601848595850E94AD329A
:1031A00080E3FE013296D601579601900D928A95E2
:1031B000E1F7CEC9D401E62D1D92EA95E9F77982AF
:1031C000940141E361E0D6011C968D919C911D977D
:1031D0000E94AD3280E3FE013296D60157960190EF
:1031E0000D928A95E1F700CA3AAA840122E0AE0165
:1031F0004E5C5F4F61E0F601848595850E94283022
:103200000E94AB1A29813A81A3CF29828E010E5CDC
:103210001F4F21E0A40161E0F601848595850E949D
:1032200028300E94AB1A6ECF6982B2CF79822CCF40
:1032300080E08F71B4C9432F50E0542F44272C7F76
:103240007A01E22A8B019C014CAD5DAD6EAD7FAD84
:10325000C6010E947D210C94B30F822F90E0982F1D
:103260008827990F990FB4E0EB9E700111240C94FC
:103270004D110CAD1DAD2EAD3FAD801A910AA20AC5
:10328000B30A11E5811615E59106A104B10408F011
:1032900047C12C8130E0220F331F90E0982F882700
:1032A000990F822B932BD60156963C91F601E30F92
:1032B000F11D2F8126952F73278B808F918F3D5F76
:1032C000F601368B0C94B30F11E00C940B10802F89
:1032D0008D7F8093300280910002C81231C181E05D
:1032E0008C0D8F70806180930002B3E82B16B2E0E2
:1032F0003B0609F008F4FEC003E812E081EBE82E7B
:1033000087E0F82E99E0C92E8DB69EB6D8012C9193
:1033100027FDB6C00F5F1F4F30E02115310509F4BE
:1033200012C1F701859194912817390708F00BC154
:10333000A901440F551F440F551F440F551F420F3D
:10334000531FFA01E654FC4FE4918DB79EB7A4E0F9
:10335000EA9F8019910911240FB6F8949EBF0FBE01
:103360008DBF0196FA01E454FC4F6491FA01E354D5
:10337000FC4F45915491FA01460F511DBA01AC0121
:103380009DAE8CAE26969FAF8EAF26976E177F07A9
:1033900009F488C02016310608F46FC0A491A53046
:1033A00028F1A73009F069C02801BFEF4B1A5B0A6A
:1033B000D8016C908201060D111D2016310608F40B
:1033C0005CC0712C812C912CDA016D927D928D92D2
:1033D0009C921397612C712C14964D925D926D9274
:1033E0007C921797485F5F4F3196D0CF5A0184E0A7
:1033F000A80EB11C48019FEF891A990AD8011C91A7
:10340000912F9F77492E512C612C712C012F007622
:10341000003609F440C017FF71C084010F5F1F4FD1
:10342000D80111978C91440C551C661C771C440CD8
:10343000551C661C771C440C551C661C771C440CE0
:10344000551C661C771C440C551C661C771C440CD0
:10345000551C661C771C440C551C661C771C982F49
:103460009F77492A87FDDACFDA014D925D926D92FE
:103470007C921397A501319689CF87E00E947D52F7
:103480002F77B0E82B9F90011124F8018181282B20
:103490000E5F1F4F42CFB0EE4B2A55245A94652C35
:1034A000762CB9CF8CAC9DAC26968EAD9FAD269771
:1034B00040912802442351F0C29EF001C39EF00DBA
:1034C0001124E554FC4FE491E0FF1AC0C29EF001C4
:1034D000C39EF00D1124E154FC4F25913491F90164
:1034E00019950FB6F8949EBE0FBE8DBE021513053A
:1034F00008F40ACFCC24C3940C940E108401B4CFEA
:10350000809129021F928F93EFE9F6E1FF93EF93E9
:103510000E94AE220FB6F8949EBE0FBE8DBEE6CFBF
:10352000D60156968C91F601E80FF11D778A91E04D
:103530000C948F11F1E0F91508F4B8CB0C945112EA
:103540001D2D0C94031085E00E947D52942F252F91
:10355000362F472F45CA8230910589F05CF08330C1
:10356000910529F0049771F48EE10E947D528FE15C
:103570000E947D52019739F480E20E947D528DE1D4
:103580000E947D520895089580912802882329F091
:10359000823011F010922802089582E00E947D523C
:1035A00088E00E947D52CF92DF92EF92FF92FC0161
:1035B00040815181628173812481E2EBF5E1859143
:1035C0009591A591B491481759076A077B0770F543
:1035D0006A017B01C20ED11CE11CF11C8C159D05FA
:1035E000AE05BF0500F5841B90E09A012654384FC4
:1035F0003F932F939F938F937F936F935F934F93FB
:1036000081E996E19F938F930E94AE228DB79EB77A
:103610000A960FB6F8949EBF0FBE8DBFFF90EF9035
:10362000DF90CF900895822F90E0DFCF80E090E090
:10363000DCCFCF92DF92EF92FF920F931F930E9405
:103640006A2C9F938F937F936F9301E010E020E0AB
:1036500030E0C0904102D0904202E0904302F090EE
:1036600044026C157D058E059F0518F000E010E002
:10367000980180913D0290913E02A0913F02B0914D
:103680004002800F911FA21FB31FBF93AF939F9360
:103690008F9383E896E19F938F930E94AE228DB71C
:1036A0009EB70A960FB6F8949EBF0FBE8DBF1F91AE
:1036B0000F91FF90EF90DF90CF9008958EE00E94E1
:1036C0007D52CF93DF93FC0180859185A285B385E0
:1036D00021892223F1F0208D318D2F5F3F4F318FD3
:1036E000208F880F991FAA1FBB1F880F991FAA1F21
:1036F000BB1F4481558166817781840F951FA61F6A
:10370000B71F84839583A683B78381E0DF91CF9130
:103710000895C485D58538812685232351F721E076
:10372000218B1092260220934702880F991FAA1F0F
:10373000BB1F880F991FAA1FBB1F880F991FAA1FA5
:10374000BB1FD7CFCF93DF93FC0180859185A285E6
:10375000B38521892223F1F0258936892F5F3F4FD8
:10376000368B258B880F991FAA1FBB1F880F991FA7
:10377000AA1FBB1F4481558166817781840F951FE5
:10378000A61FB71F84839583A683B78381E0DF914B
:10379000CF910895C485D58538812685232351F797
:1037A00021E0218B1092260220934602880F991F58
:1037B000AA1FBB1F880F991FAA1FBB1F880F991F25
:1037C000AA1FBB1FD7CFCF93DF93FC0182859385C0
:1037D000A485B585218520FF20C0228D338D2F5FE4
:1037E0003F4F338F228F23E02187880F991FAA1F15
:1037F000BB1F880F991FAA1FBB1F4481558166817B
:103800007781840F951FA61FB71F84839583A68396
:10381000B78381E0DF91CF910895C289D389388140
:103820002489232351F721E0218710922602209337
:103830004502880F991FAA1FBB1F880F991FAA1F37
:10384000BB1F880F991FAA1FBB1FD7CF9F92AF9294
:10385000BF92CF92DF92EF92FF920F931F93CF937D
:10386000DF93FC0190806BEC7DE1892D0E94C237D3
:10387000EC01F8940E946A2C9B01AC01EC85FD855B
:1038800090818E85892378948823B9F0A12CB12C5E
:103890006501E12CF12C8701692DCE0146960E942D
:1038A0003246DF91CF911F910F91FF90EF90DF9003
:1038B000CF90BF90AF909F90089584E0A82EB12C38
:1038C000C12CD12CE6CF0F931F93CF93DF938C01A4
:1038D0006BEC7DE1FC0180810E94C237EC0169E95B
:1038E0007AE2F80184810E94C237C25BDF4F99837C
:1038F0008883DF91CF911F910F9108959F92AF928E
:10390000BF92CF92DF92EF92FF920F931F93CF93CC
:10391000DF93FC0190806EE27DE1892D0E94C23729
:10392000EC01F8940E946A2C9B01AC01EC85FD85AA
:1039300090818E85892378948823B9F0A12CB12CAD
:103940006501E12CF12C8701692DCE0143960E947F
:103950003246DF91CF911F910F91FF90EF90DF9052
:10396000CF90BF90AF909F90089584E0A82EB12C87
:10397000C12CD12CE6CF0F931F93CF93DF938C01F3
:103980006EE27DE1FC0180810E94C237EC0169E9B1
:103990007AE2F80184810E94C237C55BDF4F9983C8
:1039A0008883DF91CF911F910F9108959F92AF92DD
:1039B000BF92CF92DF92EF92FF920F931F93CF931C
:1039C000DF93FC0190806EE47EE1892D0E94C23776
:1039D000EC01F8940E946A2C9B01AC01EA89FB89F6
:1039E00090818C89892378948823B9F0A12CB12CFB
:1039F0006501E12CF12C8701692DCE0148960E94CA
:103A00003246DF91CF911F910F91FF90EF90DF90A1
:103A1000CF90BF90AF909F90089584E0A82EB12CD6
:103A2000C12CD12CE6CF0F931F93CF93DF938C0142
:103A30006EE47EE1FC0180810E94C237EC0169E9FD
:103A40007AE2F80184810E94C237C05BDF4F99831C
:103A50008883DF91CF911F910F9108950F931F934A
:103A6000CF93DF938C014DE450E06EE27DE1FC01E9
:103A700080810E949C37EC0182EA9BE19B838A83D0
:103A8000198AF80184810E94B228988B8F8760E0A0
:103A9000F80180850E9401376C877D878E87DF91D2
:103AA000CF911F910F9108950F931F93CF93DF93A1
:103AB0008C016BEC7DE1FC0180810E94C237EC013E
:103AC0000E94374A198AF80184819581A681B781BD
:103AD00088879987AA87BB87892B8A2B8B2BD9F05C
:103AE0001B8A1F8A1E8A198E188E1A8EF8940E94BD
:103AF0006A2C088519852A853B85DC01CB01800F5E
:103B0000911FA21FB31F8C839D83AE83BF83CE0101
:103B10000E94894A7894DF91CF911F910F91089567
:103B20000F931F93CF93DF938C016EE27DE1FC0135
:103B300080810E94C237EC010E94374A198AF8013D
:103B400084819581A681B78188879987AA87BB8759
:103B5000892B8A2B8B2BD1F01C8A1B8A1E8A1D8AEB
:103B60001F8AF8940E946A2C088519852A853B854E
:103B7000DC01CB01800F911FA21FB31F8C839D839B
:103B8000AE83BF83CE010E94894A7894DF91CF91A2
:103B90001F910F9108950F931F93CF93DF938C0183
:103BA00040E550E06BEC7DE1FC0180810E949C3798
:103BB000EC0181E69BE19B838A83198AF801848169
:103BC0000E94B228988B8F87F80190859C8B848502
:103BD0008D8B2EEF280F233078F4981768F460E06F
:103BE000F80180890E9401376C877D878E87DF917D
:103BF000CF911F910F91089580E30E947D520F9302
:103C00001F93CF93DF938C016EE47EE1FC018081F2
:103C10000E94C237EC010E94374A19861E861F8611
:103C2000188A198AF80184819581A681B7818A87CB
:103C30009B87AC87BD87892B8A2B8B2B29F16D89BC
:103C40007E898F8940E00E943A37198E188E1B8E2C
:103C50001A8E1C8EF8940E946A2C0A851B852C856E
:103C60003D85DC01CB01800F911FA21FB31F8C8308
:103C70009D83AE83BF83CE010E94894A7894DF91F1
:103C8000CF911F910F9108956D897E898F8941E0B1
:103C9000DF91CF911F910F910C943A370F931F939F
:103CA000CF93DF93EC0142E550E06EE47EE1888142
:103CB0000E949C378C0183EE9BE1F8019383828301
:103CC0008C819FEF980F9430C8F4F801808761E0F1
:103CD00088850E940137F801628B738B848B60E0CA
:103CE0008C850E94122BF801658B768B878B41E0C7
:103CF000DF91CF911F910F910C943A378FE20E9480
:103D00007D522F923F924F925F926F927F928F924D
:103D10009F92AF92BF92CF92DF92EF92FF920F935A
:103D20001F93CF93DF9300D01F921F92CDB7DEB7C2
:103D30003C016FE67DE4FC0180810E94C2374C01AA
:103D40008BE18B838E010C5F1F4F21E0AE014D5F35
:103D50005F4F61E0F401848595850E9428300E94C0
:103D6000AB1A8C818F7031F0F401858996890196A8
:103D7000968B858B80E78D830E946A2C1B012C011A
:103D80008E010F5F1F4F22E0AE014B5F5F4F61E07E
:103D9000F401848595850E9428300E94AB1A0E9408
:103DA0006A2C29812F71A22EB12CBA2CAA242A8127
:103DB000A22A0B2C000CCC08DD087B018C01E21838
:103DC000F30804091509A2019101F3016081C401FE
:103DD00043960E9432460F900F900F900F900F90D5
:103DE000DF91CF911F910F91FF90EF90DF90CF90D7
:103DF000BF90AF909F908F907F906F905F904F900B
:103E00003F902F9008950F931F93CF93DF93EC0172
:103E1000062F142FFC01E25BFF4F642F80819181FC
:103E20000E9424468A8DFE01E80FF11D138E148E28
:103E3000158E168F8C5F8A8F803328F4DF91CF9197
:103E40001F910F910895602FCE014696DF91CF917B
:103E50001F910F910C9479460F931F93CF93DF938B
:103E6000EC01F8940E946A2C088519852A853B8507
:103E7000DC01CB01800F911FA21FB31F8C839D8398
:103E8000AE83BF83CE010E94894A7894DF91CF919F
:103E90001F910F9108950F931F93CF93DF938C0180
:103EA0006FE67DE4FC0180810E94C237EC010E9434
:103EB000374A1A8AF80184819581A681B7810097D3
:103EC000A105B10529F4DF91CF911F910F910895BC
:103ED00088879987AA87BB871C8A1B8A1E8A1D8AA6
:103EE0001F8A1F861E86198A188ACE01DF91CF91FC
:103EF0001F910F910C942C1FFC01868582FD19C027
:103F0000846086871092260281E080934902448172
:103F100055816681778180859185A285B385840FDF
:103F2000951FA61FB71F84839583A683B78381E05F
:103F3000089581898F5F818BE5CFFC01868580FFA5
:103F400006C0218932892F5F3F4F328B218B81FF41
:103F50000DC0DF01A95BBF4F0D90BC91A02D2C912E
:103F6000DF01A75BBF4F9C91922339F48160868764
:103F70001092260281E08093480244815581668137
:103F8000778180859185A285B385840F951FA61FB3
:103F9000B71F84839583A683B78381E008957F92BA
:103FA0008F929F92AF92BF92CF92DF92EF92FF9249
:103FB0000F931F93CF93DF937C01DC01DC9162E9C7
:103FC00070E28D2F0E94C2378C01F701C481B0844A
:103FD000A184DC011F969C90B2E09B1609F44FC0AF
:103FE0000E946A2C6B017C012B2D3A2D4C2F61E035
:103FF000D8011C968D919C911D970E94AD320E9414
:104000006A2C8B019C010C191D092E093F090132F4
:1040100013402105310558F54C2F50E0E1E09E1684
:1040200059F1AF92BF925F934F93FF92EF92DF925D
:10403000CF921F92DF9383E196E19F938F930E942B
:10404000AE228DB79EB70C960FB6F8949EBF0FBEEA
:104050008DBFDF91CF911F910F91FF90EF90DF9077
:10406000CF90BF90AF909F908F907F90089540E049
:1040700050E0E1E09E12D5CF6B017C01D2CFDC0194
:104080001C96ED91FC911D9794808280738040E096
:10409000682D772D892D0E943A370E946A2C6B017A
:1040A0007C01B0E1CB0ED11CE11CF11C0E946A2CFA
:1040B0002F2DC616D706E806290B27FFF7CFF89451
:1040C00041E0682D772D892D0E943A370E946A2C95
:1040D0006B017C0178942B2D3A2D4C2F61E0F80177
:1040E000848595850E94AD324C2F50E09ACF0F9376
:1040F0001F93CF93DF938C0161EC70E2FC01808110
:104100000E94C237EC0169E97AE2F80184810E94D9
:10411000C237C65BDF4F99838883DF91CF911F91B0
:104120000F910895FF920F931F93CF93DF93EC01AC
:10413000F88485E08F15F8F04AE450E062E970E217
:1041400088810E949C378C018CE79FE1F801938362
:1041500082838C810E94B228F80195878487FC01B4
:10416000858180FF0BC0F801F786DF91CF911F9109
:104170000F91FF90089582E30E947D5281E30E9497
:104180007D520F931F93CF93DF938C014CE450E04B
:1041900061EC70E2FC0180810E949C37EC018DE9AA
:1041A0009FE19B838A8362E272E3F80184810E942B
:1041B000C2379D878C87DF91CF911F910F91089512
:1041C0000F931F93CF93DF938C0162E970E2FC01A0
:1041D00080810E94C237EC010E94374A1E86F80196
:1041E00080859185A285B385892B8A2B8B2B29F419
:1041F000DF91CF911F910F91089584819581A681C0
:10420000B7818C839D83AE83BF8380859185A28592
:10421000B38588879987AA87BB871B8A1A8A1D8AD4
:104220001C8A1E8A8485888BCE01DF91CF911F91D5
:104230000F910C94894A0F931F93CF93DF938C01B6
:1042400061EC70E2FC0180810E94C237EC010E94A7
:10425000374A8E858E7F8E87F80184819581A6816D
:10426000B7810097A105B105F1F088879987AA87E2
:10427000BB87188A1F861A8A198A1B8AF8940E949B
:104280006A2C088519852A853B85DC01CB01800FC6
:10429000911FA21FB31F8C839D83AE83BF83CE016A
:1042A0000E94894A7894DF91CF911F910F910895D0
:1042B000EF92FF920F931F93CF93DF93EC010E9435
:1042C000C12061EC70E288810E94C2378C017C01C0
:1042D00087E4E80EF11C61E088850E940137F70150
:1042E00060837183828382E0F8018687DF91CF91BA
:1042F0001F910F91FF90EF900895EF92FF920F930F
:104300001F93FC01041B150B260B370B8089882398
:10431000C1F09FEF980F41E050E002C0440F551FDD
:104320009A95E2F7052E000C660B770B040F151F0C
:10433000261F371F04C036952795179507958A9530
:10434000D2F78689DF01A80FB11D0F3F11052105A6
:10435000310578F457960C9357975896EC925897E6
:104360005996FC928D5F868B1F910F91FF90EF9075
:1043700008959FEF57969C93579791E058969C937A
:10438000589759961C928D5F868B1F910F91FF90C5
:10439000EF900895EF92FF920F931F93CF93DF93C7
:1043A00000D0CDB7DEB77B01FC018485958528E17F
:1043B0002B838E010F5F1F4F22E0AE014D5F5F4FD9
:1043C00061E00E94283029813A8132272327322751
:1043D000F701318320830F900F900F90DF91CF91E1
:1043E0001F910F91FF90EF9008952F923F924F925F
:1043F0005F926F927F928F929F92AF92BF92CF9275
:10440000DF92EF92FF920F931F93CF93DF931F9250
:104410001F92CDB7DEB73C0161EC70E2FC018081F8
:104420000E94C2374C01FC01868581FF36C0F8949A
:104430000E946A2C9B01AC01F401E95BFF4F0190E3
:10444000F081E02D9081F401E75BFF4F80818923AB
:104450007894882309F43FC0A12CB12C6501E12C8C
:10446000F12C8701F3016081C4010F960E9432464E
:104470000F900F90DF91CF911F910F91FF90EF90D0
:10448000DF90CF90BF90AF909F908F907F906F9074
:104490005F904F903F902F9008950E946A2C1B01CF
:1044A0002C01BE016F5F7F4FC4010E94CA218C01A5
:1044B0000E946A2C012BE1F6298123FD12C0A12C58
:1044C000B12C65017B018C01E218F3080409150980
:1044D000A2019101C7CF64E0A62EB12CC12CD12C32
:1044E000BECF24E0A22EB12CC12CD12CEBCF2FB704
:1044F000F89480914F0290915002009749F0FC018E
:10450000408151815093500240934F022FBF089534
:104510008FE00E947D52CF93DF93C0915602D091DD
:104520005702AE01480F591F2DB73EB721503F4FDC
:1045300022273A952417350770F05093570240937D
:104540005602AC0160E070E0CE010E941A54CE0128
:10455000DF91CF91089581E10E947D523F924F9269
:104560005F926F927F928F929F92AF92BF92CF9203
:10457000DF92EF92FF920F931F93CF93DF9300D0C0
:1045800000D0CDB7DEB780914A028823C1F02696CD
:104590000FB6F894DEBF0FBECDBFDF91CF911F9154
:1045A0000F91FF90EF90DF90CF90BF90AF909F90D2
:1045B0008F907F906F905F904F903F90089581E033
:1045C00080934A025E012DE1A20EB11C8091A303EB
:1045D0003090A2038315E8F4032D10E0EB8CFC8CE3
:1045E00032E0E30EF11CF70194919801290F311D7F
:1045F000213631057CF1EB8DFC8D3396E491081B5F
:1046000011090E0F111D0136110560F010924A02BA
:10461000BECF1092A2031092A30300E010E0312C51
:1046200080E0DCCF1092A2036091A303361A032D21
:1046300010E070E06E5B7C4FA80182E493E00E9482
:1046400008541092A3033092A2038091C1008062AB
:104650008093C1000E5B1C4FF701A491A63008F4B3
:104660004BC198012E5F3F4F80E6E82EE318AE1550
:1046700008F434C1F12CF5E0EF1AF108E20EF31E54
:10468000EB8DFC8D34964491EB8DFC8D35968590A9
:1046900094906401EB8DFC8D859194918038910507
:1046A00008F00EC1B9016F5F7F4F7E836D838F77F6
:1046B000D9018C93840E911CC814D90409F44AC101
:1046C0008D819E810296E816F90608F49FCFF601C7
:1046D0008491853039F008F469C0883080F186E033
:1046E0000E947D5295012E5F3F4FF501A081B1815F
:1046F0008D819E8101966C91662391F0E816F906F2
:1047000078F0FD01319603C0E816F90648F00196ED
:10471000AC0141505109DA016C9361916111F4CF00
:10472000AC016D817E81461B570B4150DB014C93E0
:104730009E838D8359013FEFC31AD30ABDCFF50184
:104740000190F081E02DFA83E983AF01FF0F660B42
:10475000770B9701AD81BE812A1B3B0B2901330FDB
:1047600066087708441555056605770508F04ECFAD
:104770002D01BFEF4B1A5B0AAD81BE814C93350111
:10478000B4E06B0E711CF5016281738149815A811D
:10479000863009F4A5C0C2010E94FF5329813A81E5
:1047A000240D351D3E832D835301C5CFD5018230A5
:1047B00008F49AC04D915C91833009F4C3C060E065
:1047C00070E0F50132965F012A013B01F0E24F0EE5
:1047D000511C611C711C20E84216510461047104D3
:1047E00008F4ADC02A013B0130E1530E611C711C7D
:1047F000411480E458066104710408F448C02A0199
:104800003B0198E0690E711C41145104A0E26A0654
:10481000710460F12A013B01BCEF7B1A4114510481
:104820006104E0E17E0688F02A013B01ECE1769428
:10483000679457944794EA95D1F7842D8068AD81A9
:10484000BE818C931196BE83AD832A013B0135E175
:1048500076946794579447943A95D1F7842D80685D
:10486000AD81BE818C931196BE83AD832A013B013D
:104870002EE076946794579447942A95D1F7842D27
:104880008068AD81BE818C931196BE83AD83ED812E
:10489000FE8131962A013B0197E076946794579404
:1048A00047949A95D1F7842D8068AD81BE818C9311
:1048B0009F012F5F3F4F3E832D834F7740833BCF38
:1048C00098012D5F3F4FBC01660F672F661F770B66
:1048D00071956068D80112966C93E4CEEA2ECACE28
:1048E000C2010E94E9535ACF4D915D916D917C9127
:1048F000F50134965F0168CFEA2EEE2009F486CEEA
:10490000D801EC928091000211968C936DEF6E0DA0
:10491000C8010E94802C0E0D111DF8013397908361
:104920003196808331968EE78083A32DAE0DA093C0
:10493000A2038091C10080628093C10067CEED81A7
:10494000FE81B6CF052E000C660B770BF501329673
:104950005F013ACF6D817E81E616F70608F456CEE8
:10496000DB01A01BB10B83E0E82EEA0EC6CFCF938C
:10497000DF93FC0184819581A681B78144895589A3
:1049800066897789C58DD68D3881C42FC170278DF2
:10499000232331E009F430E0C31761F04F5F5F4F2C
:1049A0006F4F7F4F448B558B668B778B808F918FAA
:1049B000A28FB38F4089518962897389272F481745
:1049C00059076A072B0B27FF18C0248D2160248FFD
:1049D0004485558566857785840F951FA61FB71F6B
:1049E000808B918BA28BB38B1092260281E08093F7
:1049F0004B0284819581A681B7814085518562856E
:104A00007385840F951FA61FB71F84839583A68384
:104A1000B78381E0DF91CF9108950F931F93CF93D8
:104A2000DF938C016FE375E2FC0180810E94C23745
:104A3000EC010E94374AF80184819581A681B781F3
:104A40008C839D83AE83BF8340855185628573854A
:104A5000488759876A877B8744855585668577852A
:104A60004C875D876E877F87888B998BAA8BBB8BE2
:104A7000CE01DF91CF911F910F910C94894A0F9332
:104A80001F93CF93DF93EC0140E250E06FE375E2B8
:104A900088810E949C378C0168858C810E94013737
:104AA000F801658F768F878F87EB94E293838283FB
:104AB000DF91CF911F910F9108954F925F926F9266
:104AC0007F92BF92CF92DF92EF92FF920F931F934C
:104AD000CF93DF93FC01B08062E376E28B2D0E94DE
:104AE000C237EC014D805E806F807884C984DA849F
:104AF000EB84FC840E946A2CDC01CB0184199509AB
:104B0000A609B7098C159D05AE05BF0568F40E947E
:104B10006A2CDC01CB0184199509A609B7098C150B
:104B20009D05AE05BF0598F3CD84DE84688179814B
:104B30008A81A0918400B09185000B811C819E0127
:104B4000215F3F4F7901C20ED31ECE14DF0409F45A
:104B500057C0F70191917F0128E013C0F89440916C
:104B6000840050918500FB01808380837894FA0152
:104B7000EA1BFB0BE017F107D8F4990FDA0121507B
:104B800021F397FFEBCFF89440918400509185007A
:104B9000FB0180837894FA01EA1BFB0BE017F10715
:104BA00038F4990FF894FB0180837894DA01E7CF09
:104BB00040E00E943A370E946A2C6D837E838F8387
:104BC000988780E01F928F931F92BF9288E296E1B0
:104BD0009F938F930E94AE220F900F900F900F9093
:104BE0000F900F90DF91CF911F910F91FF90EF9059
:104BF000DF90CF90BF907F906F905F904F9008951F
:104C00000E946A2C6D837E838F83988781E0DACF40
:104C10000F931F93CF93DF93EC0162E376E28881D9
:104C20000E94C2370C811D812E813F8148856C8591
:104C30007D8517FD14C050E0DA01A00FB11FEC0113
:104C4000ED85FE85EA17FB0750F0015F1F4F800FCF
:104C5000911FDF91CF911F910F910C94FF5387E229
:104C60000E947D526F927F928F92CF92DF92EF924D
:104C7000FF92CF93DF93EC0160E08C810E94122BB6
:104C80003B01882EC884D984EA84FB84D7FC24C0E5
:104C9000A601415F5F4F62E376E288810E949C3704
:104CA000FC01608271828282D686C5868C859D8554
:104CB0009483838388899989AA89BB89818792870C
:104CC000A387B487DF91CF91FF90EF90DF90CF90D3
:104CD0008F907F906F90089588E20E947D52CF93CD
:104CE000DF93DC011C96ED91FC911D971E969C9123
:104CF0001E971F96CD91DC91509751962C9188E08C
:104D000005C09083660F9083815049F067FFF9CF0B
:104D1000288360959083660F90838150B9F7DF9167
:104D2000CF9108950F931F93CF93DF93EC0161EB25
:104D300076E288810E94C2378C0168EF0E946F265C
:104D40006C81611105C0DF91CF911F910F91089582
:104D500048855985C801DF91CF911F910F910C941F
:104D6000AF4CCF92DF92EF92FF920F931F93CF93AE
:104D7000DF938C0142E150E061EB76E2FC0180813F
:104D80000E949C37EC0160E0F80180850E94122BA4
:104D90006C877D878E8760E0F80184850E94122BE6
:104DA0006F87788B898B61E0F80184810E94122BD8
:104DB00068EFCE010E946F2660E2CE010E946F264E
:104DC000F8940E946A2C6B017C0160E0CE010E9485
:104DD0006F260E946A2C7894688379838A839B83E8
:104DE000DC01CB018C199D09AE09BF09F801C0880F
:104DF000D188E288F3888C159D05AE05BF0540F487
:104E0000C81AD90AEA0AFB0ACC82DD82EE82FF8246
:104E1000F801048915892689378980179107A20727
:104E2000B30740F4081B190B2A0B3B0B08871987A3
:104E30002A873B87DF91CF911F910F91FF90EF90D1
:104E4000DF90CF9008950F931F93CF93DF938C0142
:104E500064E178E2FC0180810E94C237EC0169E9DB
:104E60007AE2F80184810E94C237CF5ADF4F9983DA
:104E70008883DF91CF911F910F910895FF920F9337
:104E80001F93CF93DF938C0146E050E06EE377E20F
:104E9000FC0180810E949C37EC01F801F08461E004
:104EA000F11060E0F80184810E94122B6A837B83F9
:104EB0008C838D81F11009C091E0892B8D83DF9166
:104EC000CF911F910F91FF90089599E0892B8D83C9
:104ED000DF91CF911F910F91FF90089546E050E030
:104EE0006EE377E2FC0180810C949C378F929F9255
:104EF000AF92BF92FF920F931F93CF93DF93EC017A
:104F00006EE377E288810E94C2378C01F88483E0E7
:104F10008F1508F484C0F8018581867009F07FC080
:104F20008C849D84AE84BF848C819D81AE81BF8141
:104F3000892B8A2B8B2B09F074C0EFEAF6E1A5913F
:104F4000B49111968C9180FD04C060E088E00E94CD
:104F5000122B60E089E00E94122B60E08AE00E9440
:104F6000122B60E08BE00E94013780E58CBD1DBCF8
:104F70008114F2E19F06FAE7AF06B10408F041C0E0
:104F8000811489E098068DE3A806B10418F5E0E8DD
:104F90008E16E4E89E06EEE1AE06B104C0F5F0E43C
:104FA0008F16F2E49F06FFE0AF06B10468F580E2D9
:104FB000881681EA980687E0A806B10458F590E0C3
:104FC000E0E98E16E0ED9E06E3E0AE06B10428F5BA
:104FD00083E002C090E080E0CF2DCC0FCC0FC06505
:104FE000C82BF801C0839183858184608583DF911C
:104FF000CF911F910F91FF90BF90AF909F908F9096
:10500000089591E080E0E8CF90E081E0E5CF91E085
:1050100081E0E2CF91E082E0DFCF82E0DDCF0E944D
:10502000AA3288E30E947D52CF93DC0114969C91B2
:10503000149720E030E0C22FF901EA54FA4EE491CF
:105040009E1741F02F5F3F4F20313105A1F787E3D5
:105050000E947D5287E980937A002830E8F42091FD
:105060007E0081E090E00C2E01C0880F0A94EAF7E0
:10507000822B80937E0043E550E064E178E28C91DE
:105080000E949C37FC018AEB96E493838283C28F53
:1050900081E0858FCF91089520917D003C2F37705E
:1050A00081E090E001C0880F3A95EAF7822B809367
:1050B0007D00E1CF0F931F93CF93DF938C0164E1C9
:1050C00078E2FC0180810E94C237EC010E94374ADD
:1050D000909101028A8D981303C08FEF8093010293
:1050E000F80184819581A681B781888B998BAA8BE1
:1050F000BB8B8C839D83AE83BF8380859185A28586
:10510000B3858C879D87AE87BF8784858E8F91E01E
:10511000980F9D8F40895189628973894887598783
:105120006A877B8794899F8F18A2208D318D3F8B52
:105130002E8B248D358D398F288F20A12C8F88239D
:1051400049F0913360F4CE01DF91CF911F910F911F
:105150000C94894ADF91CF911F910F9108958AE1B4
:105160000E947D526EE377E20C94C237CF93DF93B7
:10517000EC016A8D662309F453C0FC0150E031E074
:1051800020E0A38DB48D4C91958D942309F0532B81
:105190002F5F330F33962613F4CF2C85922F95274C
:1051A00029F08D85852780959823D9F4888D5D8792
:1051B00087FD03C0815070F1888F4C815D816E81C5
:1051C0007F8188859985AA85BB85840F951FA61F39
:1051D000B71F8C839D83AE83BF8381E0DF91CF9126
:1051E0000895982F909529238523822B8C879E855F
:1051F0009830E0F621E0290F2E87FE01E90FF11D1E
:1052000087871092260281E080934C028FEF888F6F
:105210005D87D3CF1092260291E090934C02CCCFC1
:1052200050E0BBCF0F931F93CF93DF938C016EE3BE
:1052300079E2DC018C910E94C237FC01D8011496FE
:105240009C91828D9817B8F4292F30E0E901CC0F9A
:10525000DD1F2C0F3D1FEF01C20FD31FF801648526
:1052600080850E9401376B8F7C8F8D8FDF91CF916E
:105270001F910F91089584E20E947D52CF93FC010B
:10528000C481C930B8F44C2F50E09A01220F331F6B
:10529000420F531F455E5F4F6EE379E2FC01808150
:1052A0000E949C37FC01C28F26EB38E233832283B5
:1052B000CF91089585E20E947D52FC014481558181
:1052C00066817781208580810C943E38EF92FF9231
:1052D0000F931F93CF93DF937C0160EE79E2DC01A3
:1052E0008C910E94C2378C010E947722EC01F70159
:1052F00084819581A681B7818A839B83AC83BD839A
:10530000808591859F838E83F89419821882D801B5
:1053100051968D919C915297892BB9F15396ED91AD
:10532000FC915497D183C0835496DC93CE935397CA
:1053300080E090E07894892B39F4DF91CF911F9130
:105340000F91FF90EF900895C8010E94374AD8014D
:1053500012968D919C91139785529043F1F08A811A
:105360009B81AC81BD8120EA3FE2F8013383228337
:1053700084839583A683B783C801DF91CF911F9162
:105380000F91FF90EF900C94894AF801D48BC38B56
:10539000D28BC18B81E090E0CDCF8A819B81AC81A3
:1053A000BD81F8014481558166817781272F481797
:1053B00059076A072B0B27FFD6CF81E20E947D5247
:1053C000CF92DF92EF92CF93DF93EC01488559851E
:1053D0006A857B852C858C810E943E386B01E82E86
:1053E00045E150E060EE79E288810E949C37FC0143
:1053F000C086D186E28688899989908B87878C8937
:105400009D89AE89BF8983879487A587B68780EAFF
:105410009FE29383828368E070E0CF014196DF9141
:10542000CF91EF90DF90CF900C942438B0990FC0BB
:1054300080914D0290914E020196109207021092B7
:105440000602909309028093080281E0089581E0AA
:1054500086BB80914D0290914E02019690934E0230
:1054600080934D0220E030E830930702209306023B
:10547000909309028093080281E00895CF93FC0184
:10548000C08169E97AE28C2F0E94C237FC01838DCA
:105490008F93828D8F93818D8F93808D8F9383894E
:1054A00082FB882780F91F928F931F92CF938EEFF4
:1054B00095E19F938F930E94AE228DB79EB70A9677
:1054C0000FB6F8949EBF0FBE8DBFCF910895CF93B6
:1054D000DF93EC0169E97AE288810E94C2372C816E
:1054E000FC01228B488559856A857B8542875387D5
:1054F00064877587DF91CF910895CF93DF93EC0197
:1055000069E97AE288810E94C2374C815D816E81AF
:105510007F81FC0140835183628373834885598571
:105520006A857B854483558366837783DF91CF913A
:1055300008950F931F93CF93DF93EC014AE250E05D
:1055400069E97AE288810E949C378C0160ED71E400
:105550008C810E94C237F80191878087DF91CF91BB
:105560001F910F910895EF92FF920F931F93CF9386
:10557000DF938C0169E97AE2FC0180810E94C237E5
:10558000EC017C01FEE1EF0EF11CC7010E94374ADD
:10559000F80184899589A689B7898EA39FA3A8A7B6
:1055A000B9A7892B8A2B8B2B51F41B8A1F8A1E8A41
:1055B000DF91CF911F910F91FF90EF90089566E7D3
:1055C00077E4F80184810E94C2379F8B8E8BF801AB
:1055D00080858C8B84858D8B80899189A289B38904
:1055E000888F998FAA8FBB8F8AA39BA3ACA3BDA3DF
:1055F000808D8C8F1D8E8EE191E499A388A386E027
:105600008B8B80E090E0A0E0B0E88E879F87A88B2E
:10561000B98BC701DF91CF911F910F91FF90EF9050
:105620000C94894A803680F5E82FE695E695E69554
:10563000F0E0EE0FFF1FE355F94EA591B4911097DE
:1056400019F1877021E030E0A90102C0440F551F15
:105650008A95E2F7CA014FB7F89411962C911197E9
:10566000282B12963C91129761110CC0582F50951F
:10567000352312963C93129711962C9311974FBF96
:10568000BD010895382BF5CF86E30E947D521F920D
:105690000F920FB60F9211240BB60F92EF92FF925A
:1056A0000F931F932F933F934F935F936F937F932A
:1056B0008F939F93AF93BF93CF93DF93EF93FF931A
:1056C0000DC07A0180918400909185008E199F0908
:1056D00097FD7CC07894B2999AC0F894C091220248
:1056E000D0912302EA81FB81309709F0ACC0EA8DAA
:1056F000FB8D2C8D20838E859F85019709F4D2C068
:105700009F878E8788859985AA85BB854C815D8119
:105710006E817F81480F591F6A1F7B1F4C835D83F9
:105720006E837F8320832CA526FF0EC00C851D85EC
:10573000012E000C220B330B800F911FA21FB31FF1
:1057400088879987AA87BB87E881F98104811581B9
:1057500026813781872F401751076207830B87FD0A
:10576000B0CF7801F0932302E0932202A0912402AB
:10577000B091250214960D911D912D913C91179792
:10578000872F401751076207830B87FFFD01DF0159
:105790000190F081E02D0481158126813781872FCA
:1057A000401751076207830B87FFF1CFF983E88326
:1057B000CD93DC93D0932502C09324028091840082
:1057C000909185008E199F0997FF84CF863A9F4F4D
:1057D0000CF07BC0F0928900E0928800FF91EF917D
:1057E000DF91CF91BF91AF919F918F917F916F91F9
:1057F0005F914F913F912F911F910F91FF90EF90EB
:105800000F900BBE0F900FBE0F901F901895F8943D
:1058100080918400909185009701281B390B2038D6
:10582000314C0CF44BC02091270227FD29C09C016C
:105830002854344F30938B0020938A0024E026BBF9
:105840007C01F394C7CFCE0119954C815D816E81A7
:105850007F81811179CFE881F981E480F580F0932F
:105860002302E09322028091240290912502C8171E
:10587000D90709F027CFF0932502E093240222CF25
:1058800020912602209327029C012854344F309304
:105890008B0020938A0024E026BB9093890080939C
:1058A000880010CFCE010E94603EEA8DFB8D9C8D5A
:1058B00090834C815D816E817F81CBCF20912802C6
:1058C0002111B1CF84E30E947D527894B2999FCF89
:1058D000F894F8CE2FB7F894609184007091850009
:1058E00080914D0290914E02B09902C02FBF089551
:1058F0002FBF7F3FE1F30196089578940E94915065
:105900002FEF260F6623C1F0FC018FEF9FEF31913F
:105910008327082E8295807F8025092E982F8295D7
:105920008F700826869598278927880F880F880FFB
:105930008025215060F708958FEF9FEF08950F9312
:105940001F93FC01A489B58986898C9393A181E07A
:10595000892783A3448155816681778180FF12C0A6
:105960000085118522853385400F511F621F731FEB
:1059700082FD12C0448355836683778381E01F9143
:105980000F9108950485158526853785400F511F91
:10599000621F731F82FFEECF00891189228933892C
:1059A000872F401751076207830B87FDE3CF83E002
:1059B0009DE293838283B901A80144835583668362
:1059C000778381E01F910F9108950895FC018081F4
:1059D000A481B58140855185628573859FB7F89410
:1059E000813061F0823019F04C939FBF08954D9340
:1059F0005D936D937C9313979FBF089511965C936D
:105A00004E939FBF08958F929F92AF92BF92CF9275
:105A1000DF92EF92FF921F93CF93DF93EC01EF8C15
:105A2000F8A0E114F10409F4F0C0F701808191813C
:105A300098A38F8F86809780A084B18411E0811411
:105A40009104A104B10409F4A1C06C897D898E89F7
:105A5000412F0E943A3780914F0290915002F701F6
:105A600091838083F0925002E0924F02811491045E
:105A7000A104B104E9F08B8D9C8DAD8DBE8D88168F
:105A80009906AA06BB06A0F44F89588D698D7A8DB8
:105A9000411551056105710509F45BC08C819D813B
:105AA000AE81BF81480F591F6A1F7B1F166022C03D
:105AB0008BA131E081149104A104B10409F068C004
:105AC00084FB992790F921E09227391709F443C004
:105AD0004F89588D698D7A8D411551056105710584
